:020000040800F2
:10000000C84D002061020008FF280008692600088A
:10001000FD2800087D0F0008813200080000000064
:10002000000000000000000000000000A101000826
:10003000810F000800000000FD010008252D0008C8
:100040007B0200087B0200087B0200087B0200089C
:100050007B0200087D2B00087B0200087B02000861
:100060007B0200087B0200087B0200087B0200087C
:100070007B0200087B0200087B0200087B0200086C
:100080007B0200087B0200087B0200087B0200085C
:100090007B0200087B0200087B0200087B0200084C
:1000A0007B0200087B0200087B0200087B0200083C
:1000B0007B0200087B020008F12D00087B0200088B
:1000C0007B0200087B0200087B0200087B0200081C
:1000D0007B020008153200087B0200087B02000842
:1000E0007B0200087B0200087B0200087B020008FC
:1000F0007B0200087B0200087B0200087B020008EC
:100100007B0200087B0200087B0200087B020008DB
:100110007B0200087B0200087B020008FD2D00081E
:100120007B0200087B0200087B0200087B020008BB
:100130007B0200087B0200087B0200087B020008AB
:100140007B0200087B0200087B0200087B0200089B
:100150007B0200087B0200087B0200085132000885
:100160007B0200087B0200087B0200087B0200087B
:100170007B0200087B0200087B02000800000000F0
:100180007B0200087B020008DFF810D000F09EFB25
:100190000048004791400008AFF30080C84D0020A0
:1001A0002C4B19680868B0E8F04F80F30988BFF35A
:1001B0006F8F4FF0000080F311887047000000003F
:1001C00008480068006880F308884FF0000080F35A
:1001D000148862B661B6BFF34F8FBFF36F8F00DF35
:1001E00000BF00BF08ED00E0DFF80C00016841F43B
:1001F00070010160704700BF88ED00E0EFF30980F7
:10020000BFF36F8F134B1A681EF0100F08BF20ED5D
:10021000108A20E9F04F106009B44FF0500080F3CD
:100220001188BFF34F8FBFF36F8F04F0D7FE4FF0ED
:10023000000080F3118809BC19680868B0E8F04F25
:100240001EF0100F08BFB0EC108A80F30988BFF3CE
:100250006F8F704720000020EFF30580704700008B
:100260000648804706480047FEE7FEE7FEE7FEE750
:10027000FEE7FEE7FEE7FEE7FEE7FEE7E12D00080A
:10028000890100082DE9F05F0546002092469B4653
:1002900088460646814640241BE02846414647469C
:1002A000224600F032F953465A46C01A914110D303
:1002B00011461846224600F019F92D1A67EB01087D
:1002C0004F4622460120002100F010F917EB0009EB
:1002D0004E41201EA4F10104DFDC484631462A4687
:1002E0004346BDE8F09F40EA01039B0703D009E0C5
:1002F00008C9121F08C0042AFAD203E011F8013B12
:1003000000F8013B521EF9D27047D2B201E000F86A
:10031000012B491EFBD270470022F6E710B51346A9
:100320000A4604461946FFF7F0FF204610BD30B5D7
:1003300005462A460B4612F8010B13F8014B08B18B
:10034000A042F8D01CB1002802D06D1CF1E728466D
:1003500030BD00000FB400B589B00BA800906A460C
:1003600003480A9900F0F0F809B05DF814FB0000AA
:10037000600100202DE9FF5F1D464FF0FF3BD5E9EE
:10038000014691465F464FF00008A9697F1C01981D
:100390008847296A824688470028F6D1BAF1FF3F8C
:1003A0000CD024F4C064002E19DD600614D5BAF117
:1003B0002B0F09D0BAF12D0F0ED103E0584604B02F
:1003C000BDE8F09F44F48064A9697F1C01988847C8
:1003D000761E8246002E02DDBAF1300F03D0B9F14D
:1003E000000F26D032E0A969761E44F400747F1C09
:1003F000019888478246002E05DDBAF1780F06D0B5
:10040000BAF1580F03D0B9F1000F10D01EE0B9F1C6
:10041000000F02D0B9F1100F18D1A969761E24F48B
:1004200000747F1C019888478246102002E0082053
:1004300000E00A20814609E008FB0908A969761E48
:1004400044F400747F1C019888478246002E05DD25
:100450004946504600F069F80028EDDAE96901984C
:100460008847A00502D46FF00100A8E7E00725D176
:10047000600613D5600502D5C8F1000000E04046D3
:1004800029680A1D2A600968220501D5087015E04F
:10049000220701D5088011E008600FE02868011DDF
:1004A00029600068210502D580F8008006E0210758
:1004B00002D5A0F8008001E0C0F8008038467EE751
:1004C00030B50B46014600202022012409E021FA24
:1004D00002F59D4205D303FA02F5491B04FA02F521
:1004E0002844151EA2F10102F1DC30BD202A04DBF4
:1004F000203A00FA02F1002070479140C2F1200337
:1005000020FA03F3194390407047202A04DB203A75
:1005100021FA02F00021704721FA02F3D040C2F123
:10052000200291400843194670473A2800D23038DB
:1005300020F02002412A01D3A2F13700884201D3E2
:100540004FF0FF3070470000024B9361024BD361C4
:1005500000F0FCB9554000080D0900082DE9FE4FD8
:10056000804681EA0300C00F0C46009021F0004154
:1005700023F00045B8EB0200A94105D240462146D0
:1005800090461C460B46024623F00040104347D0DD
:10059000270DC7F30A00C3F30A510290401A0190D5
:1005A00040286BDAC3F3130040F4801B0098924696
:1005B00020B10023D2EB030A63EB0B0B01985946E1
:1005C000C0F140025046FFF791FF06460D465046E7
:1005D0005946019A00F0A2F910EB0800614100248D
:1005E00087EA115284EAE7731A4340D0009A62B353
:1005F000019A012A4FEA075215DC001B61EB020148
:100600004FF0004202EA0752CDE90042001C41F5DA
:10061000801132462B4600F0B6F903B0BDE8F08FEA
:1006200040462146F9E7001B61EB0201001C41F541
:10063000801300185B412018A2F5001747EB030157
:1006400040EAD570B6196D4111E06D084FEA3606E3
:1006500045EAC0754FEA0752001B61EB0201001C1E
:1006600041F5801149084FEA3000001951413246E6
:100670002B4603B0BDE8F04F00F076B90098012298
:1006800040000023D0EB020263EBE07300982146A8
:100690004FEAE074B8EB000061EB0401E9E783F096
:1006A00000435BE781F0004158E72DE9FE4F81EA06
:1006B000030404F0004421F0004100944FF0000BCB
:1006C00023F0004350EA01045ED052EA03045BD0F9
:1006D000C3F30A54C1F30A552C44A4F2F334019431
:1006E000A0FB0254C1F3130141F48011C3F31303BF
:1006F00043F4801301FB024400FB034E840A970A73
:1007000044EA815447EA8357A4FB076802958D0A9F
:1007100005FB07854FEA932C04FB0C542705029D2B
:100720004FEA065847EA1637B5EB08056EEB070C9B
:10073000870E920E47EA811742EA8312A7FB020155
:10074000B6EB0B0164EB00042B0D43EA0C335E188F
:1007500044EB1C50DA465146E7FB0201C5F3130493
:100760004FEA0B3343EA14534FEA0432019C43EA45
:100770000603A4F10C040294009CCDE900B400F03F
:1007800002F903B0BDE8F08F00200146F9E72DE93A
:10079000F04D81EA030404F0004B21F000451446BB
:1007A0004FF0000A23F0004150EA050220D054EA3D
:1007B00001021DD0C5F30A570246C5F31303C1F366
:1007C0001300C1F30A5640F4801543F48013A7EBDD
:1007D0000608101BD64608F2FD3873EB050002D35D
:1007E00008F1010801E092185B41B8F1000F03DA4B
:1007F00000200146BDE8F08D00204FF48011064630
:1008000084460EE0171B73EB050705D3121B63EB41
:10081000050306434CEA010C49084FEA30009218E0
:100820005B4150EA0107EDD152EA030012D082EA9F
:10083000040083EA0501084305D0101BAB4106D232
:100840000122002306E000224FF0004302E06FF097
:10085000010253101AEB06004CEB085110EB0A0092
:1008600041EB0B01BDE8F04D00F07EB8C1F30A5238
:10087000C1F3130140F2FF3341F480119A4202DACE
:1008800000200146704740F233439A42A2F23342BD
:1008900002DC5242FFF739BEFFF728BE30B5041E16
:1008A00071F1000404DB4FF00044404264EB0101AD
:1008B000141E73F1000405DB1C464FF00043524246
:1008C00063EB0403994208BF904230BD064C074DCC
:1008D00006E0E06840F0010394E807009847103410
:1008E000AC42F6D3FFF754FC9C5B0008BC5B0008ED
:1008F000094910B508784C1C18B1401E0870205CDE
:1009000010BD00210720ABBE207010BD0249087841
:10091000421C0A707047000068010020202A06DB94
:10092000CB17203A41FA02F043EAE07306E041FABD
:1009300002F3D040C2F120029140084319467047AB
:10094000026811441378016018467047D160044969
:1009500051610449116200211161114600F066B82D
:1009600041090008230A000810B5141E73F10004A1
:1009700008DA401C41F1000192185B411A4301D191
:1009800020F0010010BD2DE9F04D92469B4611B1BB
:10099000B1FA81F202E0B0FA80F220329046FFF71D
:1009A000A5FD04460F4640EA0A0041EA0B01534602
:1009B0005A46084313D0114653EA010019D0C8F132
:1009C00040025046FFF7A1FD05460E4650465946E7
:1009D0004246FFF78BFD084305D0012004E0204686
:1009E0003946BDE8F08D0020054346EAE0762C4309
:1009F00037430A986305E40AA0EB08000022FD0AC9
:100A000044EA47540A3002D500200146E9E70105CF
:100A100010196941DDE9084500196941BDE8F04D4B
:100A2000A2E7C0B24FF4F05100F098B92DE9F34FAE
:100A30008BB04FF0000801F10C000C464FF0010B99
:100A400046460DF1080A019062690121019890471C
:100A5000051E2DD0252D2CD0216A8847C0B1626992
:100A6000012101989047216A88470028F7D1411E4B
:100A700062690198904700E0761CA1690B9888474D
:100A8000216A88470028F7D1E1690B988847DBE79E
:100A9000A1690B9888470746A84201D1761CD3E785
:100AA000E1690B9888477F1C02D1B8F1000F6FD025
:100AB00047E1002762693D463946019890472A2858
:100AC00004D162690121019890470125DFF88892DD
:100AD0006269012101989047A0F130010A290AD2E8
:100AE0004F45E5DC07EB870100EB4107303FDFD4E2
:100AF00045F01005ECE7E90601D46FF000476C28DB
:100B00000AD04C2814D0682815D06A280DD0742833
:100B10001CD07A281AD01DE0626901210198904703
:100B20006C2802D045F0040514E045F002050DE004
:100B300045F020050AE06269012101989047682884
:100B400002D045F0080505E045F400656269012121
:100B500001989047C4E9015765283DD019DC582811
:100B60007AD00CDC452837D004DC252826D0412853
:100B700031D131E046282FD047282CD12CE05B28FA
:100B800077D0612828D063287CD0642823D15AE00C
:100B9000D1E06F2848D008DC66281DD067281BD01C
:100BA000692821D06E2816D127E0702845D07328F7
:100BB00068D0752847D078280DD14DE0A1690B98F1
:100BC0008847054625283FF469AFE1690B988847B7
:100BD0006D1C3FF46AAFB4E023466A466FF0010033
:100BE0000B99AFF300809FE045F040006060A807DC
:100BF00023464FF0000236D43EE0E8077FF447AFCB
:100C00002068011D21600068290501D506701BE7D9
:100C1000290701D5068017E7A90703D5F117C0E911
:100C2000006111E706600FE745F040006060A8072B
:100C300023464FF0080216D41EE040F60E0125EAC6
:100C40000100606016E045F040006060A8072346A0
:100C50004FF00A0207D40FE045F040006060A8079B
:100C600008D5234610226FF001000B99AFF30080E6
:100C70005AE007E0234610226FF001000B99FFF7BE
:100C800079FB51E04FF000094F464B46632802D0F4
:100C90005B2807D041E02079C00601D40120A06084
:100CA00001273AE062690121019890475E2805D149
:100CB0004FF001096269494601989047216939B9A5
:100CC00000210A46534643F82120491C0829FADB33
:100CD000B0B3216969B9C11700EBD16253110AEBB6
:100CE000830122F01F02821A01200B689040034307
:100CF0000B6062690121019890475D28E8D1B9F144
:100D0000000F09D00020514651F82020D24341F86D
:100D10002020401C0828F7DB02AB224600976FF02A
:100D200001000B99AFF3008000280CDA401C08D1B9
:100D3000BBF1000F05D04FF0FF300DB0BDE8F08FD4
:100D4000FFE74046F9E7E90701D108F10108064449
:100D50004FF0000B78E60000CCCCCC0C7F2801D9FA
:100D6000002208E0064A02EB5002C007127800D1C8
:100D7000120902F00F020120904008407047000065
:100D8000F45A000870B58C1810F8015B15F00703D1
:100D900001D110F8013B2A1106D110F8012B03E014
:100DA00010F8016B01F8016B5B1EF9D12B0705D41C
:100DB0000023521E0DD401F8013BFAE710F8013B65
:100DC000CB1A921C03E013F8015B01F8015B521E81
:100DD000F9D5A142D8D3002070BD00002DE9F04123
:100DE00000254FF4FA764FF4C877052D5AD2DFE884
:100DF00005F003152D496500641CE4B239A002F02A
:100E000041FA01F0E4FDF0B9012001F0C2FDD0B9D2
:100E100037A002F037FA0024012510E0641CE4B288
:100E200036A002F02FFA01F0D2FD60B9022001F0E5
:100E3000B0FD40B92EA002F025FA00240225384664
:100E400000F0B4FAD1E701F0D9FE2BE02FA002F0B8
:100E500019FA01F018FE05000ED030A002F012FAC7
:100E6000284601F0CBFE00242546304600F09EFACD
:100E7000384600F09BFABFE72BA002F003FA0325E7
:100E800030460DE02BA002F0FDF9304600F08EFA5E
:100E900001F013FE68B1002501F0B0FE4FF47A7046
:100EA00000F084FA384600F081FA0A2C9DD1BDE8A2
:100EB000F08124A002F0E6F90425EFE726A002F075
:100EC000E1F90121022001F012FE08B10025BAE784
:100ED00026A002F0D7F9BDE8F04140F2DC5000F066
:100EE00065BA0000C7EBB0B4CAD6D6B80D0A000088
:100EF000D6B8CEC6D5FDB3A30D0A0000C7EBD4D932
:100F0000B0B4D2BBB4CE0D0A00000000B6D4B1C854
:100F1000C1BDB4CED6B8CEC60D0A0000B6D4B1C895
:100F2000CAA7B0DC0D0A0000B6D4B1C8B3C9B9A6CF
:100F30000D0A0000C9FAB3C9D6B8CEC6C4A3B0E53D
:100F40000D0A0000C9FAB3C9D6B8CEC6C4A3B0E52D
:100F5000B3C9B9A60D0A0000C4ACC8CFD1A1D4F161
:100F60004944CEAA31200D0A00000000C2BCC8EBE3
:100F7000D6B8CEC6B3C9B9A60D0A0000FEE77047C1
:100F80007047000010B50AA002F07CF9012001466C
:100F900001F0B6FC40B101F031FE00BFBDE81040E9
:100FA00040F2DC5000F002BA09A002F06BF9F5E75C
:100FB000B5A5B8F6C9BEB3FDD6B8CEC6BFAACABCE1
:100FC000A3ACC4ACC8CFC9BEB3FD4944CEAA31005E
:100FD000C9BEB3FDD6B8CEC6B3C9B9A6200D0A00A6
:100FE00010B509A002F04EF901F0B9FC40B101F0D2
:100FF00005FE00BFBDE8104040F2DC5000F0D6B95D
:1010000006A002F03FF9F5E7C9BEB3FDD6B8CEC6DB
:10101000BFE2BFAACABC0D0A00000000C7E5BFD5E9
:10102000D6B8CEC6BFE2B3C9B9A60D0A000000000B
:1010300021283CD2DFE800F011131517191B1D1FE2
:10104000212325273B3B3B3B27293B3B3B2B3B3B82
:101050002D2F3133353B3B37390016A070471AA08E
:1010600070471EA0704722A0704726A070472AA094
:1010700070472EA0704732A0704736A070473AA044
:1010800070473EA0704742A0704746A070474AA0F4
:1010900070474EA0704752A0704756A070475AA0A4
:1010A00070475EA0704762A0704766A070476AA054
:1010B00070470000202020202020204F4B2020209F
:1010C000202020200000000020CAFDBEDDB0FCBDB5
:1010D000D3CAD5B4EDCEF32000000000B4ABB8D035
:1010E000C6F7C9CFC3BBD3D0CAD6D6B8000000005C
:1010F000C2BCC8EBD6B8CEC6CDBCCFF1CAA7B0DC57
:101100000000000020D6B8CEC6CCABB8C9BBF2CC2C
:10111000ABB5AD200000000020D6B8CEC6CCABCA1F
:10112000AABBF2CCABBAFD20000000002020D6B84C
:10113000CEC6CDBCCFF1CCABC2D220200000000087
:1011400020D6B8CEC6CCD8D5F7B5E3CCABC9D9201C
:10115000000000002020D6B8CEC6B2BBC6A5C5E4AC
:10116000202020200000000020C3BBD3D0CBD1CB57
:10117000F7B5BDD6B8CEC62000000000202020CC98
:10118000D8D5F7BACFB2A2CAA7B0DC2000000000C1
:101190002020C9BEB3FDC4A3B0E5CAA7B0DC20209F
:1011A0000000000020C7E5BFD5D6B8CEC6BFE2CA52
:1011B000A7B0DC2000000000BBBAB3E5C7F8C4DA72
:1011C000CEDED3D0D0A7CDBC0000000020B6C1D069
:1011D000B4464C415348B3F6B4ED20200000000063
:1011E000202020CEB4B6A8D2E5B4EDCEF320202046
:1011F000000000002020CEDED0A7BCC4B4E6C6F7B5
:10120000BAC520200000000020BCC4B4E6C6F7C464
:10121000DAC8DDB4EDCEF3200000000020BCC7CA60
:10122000C2B1BED2B3C2EBB4EDCEF32000000000D9
:1012300020202020D6B8CEC6BFE2C2FA202020202F
:101240000000000020202020B5D8D6B7B4EDCEF3A2
:10125000202020200000000020B7B5BBD8C8B7C8A8
:10126000CFC2EBD3D0CEF3200000000072B6FEE771
:1012700008B5694613A0FFF76DF813A0009902F0B6
:1012800001F800990020012909D002290BD0032977
:101290000DD004290FD011A001F0F4FF0EE0009052
:1012A000FFF79CFD0AE0009002F0A0FF06E000902E
:1012B000FFF768FE02E00090FFF792FE01F0ACFC41
:1012C00008BD000025640000BDD3CAD5B5BDD7D682
:1012D000B7FBA3BA25640D0A00000000C7EBCAE4FF
:1012E000C8EBBACFB7A8D6B8C1EEA3A10D0A0D0AB4
:1012F000000000002DE9F0410446876D00F072F90E
:10130000064694F835000025022806D08020606546
:1013100084F834500120BDE8F0812068016821F094
:10132000160101602068416921F080014161206C53
:1013300008B9A06C20B12068016821F008010160A3
:101340002068016821F0010101600CE000F04AF919
:10135000801B052807D920206065032084F835000C
:1013600084F83450D7E720680068C007EED194F8BD
:101370005C103F208840B860012084F8350084F874
:1013800034500020C7E790F83510022903D080219F
:10139000416501207047052180F83510006801681B
:1013A00021F00101016000207047000070B5044683
:1013B00000F018F90546601C02D004480078044487
:1013C00000F010F9401BA042FAD370BD10000020BD
:1013D0002DE9F84FDFF8BCA1002201250AF1040B2A
:1013E00003264FF00F090BF1040E00BF0B6805FA3E
:1013F00002F42340A34270D10F7907F00307012FB5
:1014000001D0022F16D187684FEA420806FA08FC7D
:1014100027EA0C07D1F80CC00CFA08FC4CEA070CC0
:10142000C0F808C04768A7430C79C4F3001494407F
:101430003C4344600C79E443A4070AD0C4684FEAF3
:10144000420C06FA0CF7BC438F6807FA0CF72743E7
:10145000C7600C7904F00304022C12D1D40800EB0D
:10146000840CDCF820405707FF0E09FA07F824EA3D
:101470000804D1F8108008FA07F848EA0408CCF804
:10148000208004684FEA420C06FA0CF7BC430F793F
:1014900007F0030707FA0CF7274307604C6814F4BA
:1014A000403F70D03C4C276847F480472760246851
:1014B00022F0030704F480440094384C07EB040C3A
:1014C000DCF8084897074FEA177809FA08F7BC4391
:1014D000334FB84202D1002724E054E0314FB842E4
:1014E00001D101271EE0304FB84201D1022719E097
:1014F0002E4FB84201D1032714E02D4FB84201D13D
:1015000004270FE02B4FB84201D105270AE02A4FEC
:10151000B84201D1062705E0284FB84201D107277C
:1015200000E0082707FA08F72743CCF80878DAF82C
:1015300000405746D1F804C09C435FEACC3C00D53C
:101540001C433C60DBF800405F46D1F804C09C437C
:101550005FEA8C3C00D51C433C60DEF800407746D7
:10156000D1F804C09C435FEACC2C00D51C433C60FE
:10157000084F0C373C68D1F804C09C435FEA8C2CC0
:1015800000D51C433C60521C102AFFF42FAFBDE86D
:10159000F88F0000003C0140443802400030014018
:1015A000000002400004024000080240000C02401B
:1015B000001002400014024000180240001C0240CB
:1015C0000069084000D001207047426921EA020307
:1015D0000A4043EA0241816170470AB18161704764
:1015E0000904FBE7014880687047000010000020F4
:1015F0000248816802781144816070471000002021
:101600000B4810B5016841F400710160016841F4B4
:1016100080610160016841F480710160032000F085
:10162000A3F80F2000F006F800F03EF8002010BDEF
:10163000003C024010B5014688B00022372000F07F
:1016400073F8372000F063F813480024016841F074
:1016500020010160006805A900F02000069068469E
:1016600000F02EF900F04CF90C494000B0FBF1F10C
:101670000C480B4A491E026040F2E732C0E90324DD
:10168000C0E9011400F08CFB10B1012008B010BDBE
:10169000044800F0D1FBF9E74038024040420F0017
:1016A00000140040E4080020114808B5016841F426
:1016B00080410160006800F4804000900C48001FE9
:1016C000016841F0805101600068002200F0805004
:1016D00000900F21901E00F027F8052100220846F7
:1016E00000F022F8BDE80840052000F010B8000026
:1016F00044380240002809DB00F01F02012191401C
:101700004009800000F1E020C0F8801270470028F6
:1017100009DB00F01F02012191404009800000F127
:10172000E020C0F800117047F0B40E4B1B680C4667
:10173000C3F30223C3F10705042D00D90425191DA5
:10174000072901D2002300E0DB1E012606FA05F17D
:10175000491E214099409E40761E16403143F0BC00
:1017600001F0B4BD0CED00E0064900F00702086886
:101770004FF6FF03184040EA0220034A1043086076
:10178000704700000CED00E00000FA052DE9F0477D
:101790000E46050065D0DFF81481D8F80000F7B2D6
:1017A00000F00700B04207D288F80070D8F80000B7
:1017B00000F00700B04254D128683D4C810712D593
:1017C000400703D5206840F4E050206028780007E7
:1017D00003D5206840F4604020602068A96820F0AC
:1017E000F000084320602878C0072DD03049686891
:1017F0000839012812D0022813D0032811D0096813
:10180000890700292DDA216821F0030101432160B5
:10181000FFF7E8FE814641F2883A0EE00968890345
:10182000EFE709688901ECE7FFF7DCFEA0EB0901AF
:10183000514502D90320BDE8F0872068696800F0AF
:101840000C00B0EB810FEFD1D8F80010404601F04A
:101850000701B14207D90770006800F00700B042E5
:1018600001D00120E7E72878400705D52068E9681E
:1018700020F4E050084320602878000706D520684F
:10188000296920F4604040EAC100206000F058F867
:101890002168084AC1F30311515CC8400649086039
:1018A00006480068FFF7C6FE0020C4E7003C02407F
:1018B00008380240DC5A00081C00002014000020F8
:1018C0000F2202600C4A136803F00303436013689D
:1018D00003F0F0038360136803F4E053C3601268FD
:1018E0004FF4E05303EAD20202610448006800F0BA
:1018F000070008607047000008380240003C0240C2
:101900000448054900680968044AC1F38221515C12
:10191000C84070471C00002008380240EC5A0008FC
:101920000448054900680968044AC1F34231515C22
:10193000C84070471C00002008380240EC5A0008DC
:10194000154810B5006810F00C02144813D041106F
:10195000042A0FD0082A0ED10F4C241F22682368B6
:1019600002F03F025B0207D52068C0F38810A0FB9D
:10197000010106E0084610BD2168C1F38811A1FBF2
:1019800000010023FEF77EFC2168C1F30141491CE0
:101990004900B0FBF1F010BD083802400024F4000B
:1019A0002DE9F84F04006ED02078DFF84C93C00783
:1019B000A9F104054AD009F104000168C1F38101CD
:1019C000012908D00068C0F3810002280AD1D9F8A3
:1019D0000000400206D52868800337D560680028DB
:1019E000E1D033E06068B0F5803F10D0B0F5A02FB3
:1019F000286810D020F480302860286820F48020E7
:101A000028606068A8B1FFF7EDFD06460DE0286884
:101A100040F48030F4E740F480202860F7E700BF0E
:101A2000FFF7E0FD801B642873D828688003F7D592
:101A30000CE0FFF7D7FD064605E000BFFFF7D2FD3B
:101A4000801B6428F0D828688003F7D42078DFF85A
:101A5000AC8280074FF0000A3ED5A748001D016800
:101A600011F00C0F08D00068C0F3810002280BD1E0
:101A7000D9F80000400207D42868800716D5E0682E
:101A8000012800D112E033E1E068B8B10120C8F8C4
:101A90000000FFF7A7FD064605E000BFFFF7A2FD27
:101AA000801B0228C0D828688007F7D528682169DC
:101AB00020F0F80040EAC10028600DE0C8F800A05E
:101AC000FFF790FD064604E0FFF78CFD801B02281F
:101AD0001FD828688007F7D42078000722D5864FC2
:101AE00087486169703771B101210160FFF77AFDA4
:101AF000064604E0FFF776FD801B022809D8386807
:101B00008007F7D50EE0C0F800A0FFF76BFD064692
:101B100005E082E0FFF766FD801B02287DD838686B
:101B20008007F7D42078400768D5DFF8CCB10027CC
:101B30000BF13C0BDBF80000C0000BD4DBF800100D
:101B400041F08051CBF80010DBF80000012700F0D5
:101B5000805000906B4E3068C00510D4306840F45F
:101B600080703060FFF73EFD009005E0FFF73AFD22
:101B70000099401A022850D83068C005F6D55E4E4C
:101B8000A0686C3601280FD00528306810D020F0EE
:101B900001003060306820F004003060A068B8B107
:101BA000FFF720FD00900FE0306840F00100F4E7FF
:101BB00040F004003060F7E7FFF714FD0099411A88
:101BC00041F28830814266D830688007F4D50EE053
:101BD000FFF708FD009007E0FFF704FD0099411AA8
:101BE00041F28830814256D830688007F4D42FB152
:101BF000DBF8001021F08051CBF80010A069C8B3C9
:101C00003D49091D0968C1F3810102294AD0022812
:101C1000504607D0C8F8600000E03CE0FFF7E2FC67
:101C200004463BE04746C8F86000FFF7DBFC064689
:101C300005E000BFFFF7D6FC801B02282BD82868E0
:101C40008001F7D4D4E907010843A16A2E4A490864
:101C500002EB0141626A41EA8211084394F82C10B8
:101C600040EA0161C9F8001001203866FFF7BAFCAC
:101C7000044606E03EE000BFFFF7B4FC001B02286C
:101C800009D828688001F7D534E000BFFFF7AAFC27
:101C9000001B022802D90320BDE8F88F28688001C4
:101CA000F4D427E00128F7D0D9F80000E26900F465
:101CB000800191421CD1226A00F03F01914217D16C
:101CC00047F6C071626A0140B1EB821F10D1A26A6F
:101CD0004FF0FF3300F4403103EB5202B1EB024FFF
:101CE00006D194F82C1000F07060B0EB016F01D0B9
:101CF0000120D1E70020CFE704380240000047422E
:101D0000800E4742007000400000FFFF70477047A0
:101D100070B590F83C20012A32D0012480F83C4074
:101D2000022280F83D2003685A689D6822F0700600
:101D30000A6832435A60134B02689A4214D0B2F1D7
:101D4000804F11D0104B9A420ED0104B9A420BD0BC
:101D50000F4B9A4208D00F4B9A4205D00E4B9A4235
:101D600002D00E4B9A4204D1496825F080031943F2
:101D7000916080F83D40002180F83C10084670BD1D
:101D8000022070BD00000140000400400008004037
:101D9000000C0040000401400040014000180040D9
:101DA00010B5040003D094F83D0010B107E0012005
:101DB00010BD002084F83C00204600F01FF80220EF
:101DC00084F83D00211D206801F01EF8012084F8F0
:101DD000460084F83E0084F83F0084F8400084F810
:101DE000410084F8420084F8430084F8440084F8F9
:101DF000450084F83D00002010BD000008B50068D3
:101E00000B49884212D10B48016841F0040101607E
:101E10000068002200F00400009005211E20FFF75A
:101E200083FCBDE808401E20FFF771BC08BD000020
:101E3000000800404038024090F83D10012901D0D0
:101E400001207047022180F83D100168CA6842F005
:101E50000102CA6000681149884214D0B0F1804F75
:101E600011D00F4988420ED00E4988420BD00E493E
:101E7000884208D00D49884205D00D49884202D0D9
:101E80000C49884204D1816801F00701062903D07A
:101E9000016841F00101016000207047000001402D
:101EA0000004004000080040000C00400004014015
:101EB000004001400018004070B5044690F83C0016
:101EC0000025012817D0012684F83C60022084F800
:101ED0003D002068826822F0770222F47F4282600F
:101EE0000868502838D00DDC20284FD005DC90B38E
:101EF000102811D14AE0022070BD302846D0402879
:101F00000AD13BE060282FD070280DD0B0F5805F5B
:101F100003D0B0F5005F12D0012584F83D600020A9
:101F200084F83C00284670BDCB68D1E901212068C7
:101F300000F0CEFF2068816841F0770109E0CB68AE
:101F4000D1E90121206800F0C3FF2068816841F4D5
:101F500080418160E1E719E0CA684968206800F0C3
:101F6000C9FF5021206806E0CA684968206800F06F
:101F7000D2FF6021206800F0B5FFCEE7CA6849684B
:101F8000206800F0B7FF40212068F4E7226801468E
:101F90001046F0E7704770B50446006801694FF0DD
:101FA0000005C943890715D4C168C943890711D4FD
:101FB000E91E0161012020772068806980072046A2
:101FC00002D0FFF7E7FF04E000F098F8204600F0A9
:101FD00096F8257720680169C943490717D4C16875
:101FE000C943490713D46FF004010161022020772F
:101FF0002068806910F4407F204602D0FFF7CAFFB6
:1020000004E000F07BF8204600F079F8257720689E
:102010000169C943090716D4C168C943090712D425
:102020006FF008010161042020772068C0698007F3
:10203000204602D0FFF7AEFF04E000F05FF8204634
:1020400000F05DF8257720680169C943C90617D4F7
:10205000C168C943C90613D46FF01001016108209B
:1020600020772068C06910F4407F204602D0FFF737
:1020700091FF04E000F042F8204600F040F8257798
:1020800020680169C943C90708D1C168C943C907A4
:1020900004D1891E0161204600F032F820680169F0
:1020A000C943090609D4C168C943090605D46FF0BC
:1020B000800101612046FFF729FE20680169C943BC
:1020C000490609D4C168C943490605D46FF04001E7
:1020D0000161204600F02AF820680169C943890699
:1020E0000BD4C168C943890607D46FF02001016190
:1020F0002046BDE87040FFF70ABE70BD70477047CC
:1021000010B5044600680749884201D1FFF770FA0C
:1021100005492068884203D1BDE8104002F0E0BCC8
:1021200010BD0000001400400008004070477047D8
:1021300070470000F8B5016804460868CA684B6932
:1021400010F00F0F4FF0000559D003F0010602F414
:102150009077374365D0C10705D0D10503D5216CF1
:1021600041F001012164410705D5D90703D0216C55
:1021700041F002012164810705D5D90703D0216C04
:1021800041F004012164010707D502F02001314329
:1021900003D0216C41F008012164216C00293AD060
:1021A000800604D5900602D5204600F0F5FE206892
:1021B0004069216CC0F38010090700D460B3204649
:1021C00000F0C3FE20684069400621D52068143025
:1021D00050E8001F21F0400140E80012002AF5D12C
:1021E000A06BA8B16C490165A06BFFF7CCF8002883
:1021F00011D0A06B016D01B0BDE8F0400847830627
:102200000FD593060DD52046BDE8F84000F0C4BEBA
:102210002046FFF78DFFF8BD2046FFF789FF2564B4
:10222000F8BD266B2023012E79D1C60677D5D606B8
:1022300075D50868486800904869400640D5A16B8C
:10224000086840680004000CEAD0A28D8242E7D9F9
:10225000E085C869B0F5807F2DD020680C3050E84B
:10226000001F21F4807140E80012002AF5D1206897
:10227000143050E8001F21F0010140E80012002A4C
:10228000F5D12068143050E8001F21F0400140E8EB
:102290000012002AF5D184F83E30256320680C3006
:1022A00050E8001F21F0100140E80012002AF5D18B
:1022B000A06BFFF71FF8A08DE18D401A81B229E0D5
:1022C000A08DE18D401A81B2E08D0028A8D00029B0
:1022D000A6D020680C3050E8002F22F4907240E81D
:1022E0000026002EF5D12068143050E8002F22F08F
:1022F000010240E80026002EF5D184F83E30256327
:1023000020680C3050E8002F22F0100240E8002333
:10231000002BF5D12046FFF70AFFF8BDFFE70506C1
:102320002BD5150629D594F83D002128F5D1A068B4
:10233000B0F5805F01D12069B0B1206A411C2162F3
:10234000216800784860E08C401E0004000CE084A6
:10235000E3D12068C16821F08001C1602068C168B4
:1023600041F04001C160D8E7206A0088C0F308004E
:102370004860206A801C2062E5E74006CDD5500603
:10238000CBD5CA68204622F04002CA6084F83D30AE
:1023900000F069F9C1E700003B2F000870B50400A8
:1023A00004D094F83D00002510B106E0012070BD76
:1023B00084F83C50204600F023F8242084F83D00A7
:1023C0002068C16821F40051C160204600F044FE3D
:1023D0002068016921F4904101612068416921F080
:1023E0002A0141612068C16841F40051C16025643F
:1023F000202084F83D0084F83E00002070BD0000DD
:1024000070B586B0044614216846FDF785FF2A485A
:10241000284E256800242849143802220323B54297
:1024200020D10D6845F010050D60096801F010011C
:102430000591016841F0010101600068694600F002
:102440000100059058028DE815000720CDE9033002
:102450001A48FEF7BDFF002205212520FFF764F989
:10246000252022E0164EB54221D10D6845F0200509
:102470000D60096801F020010591016841F0040137
:1024800001600068694600F004000590C0208DE8F6
:1024900015000820CDE903300A48FEF799FF002215
:1024A00005214720FFF740F94720FFF730F906B034
:1024B00070BD00000010014044380240000002409E
:1024C00000140140000802402DE9F84F044690F83E
:1024D0003E009A4616460D46202853D1FDB1F6B16E
:1024E00094F83C0001284DD0012084F83C000027DE
:1024F0002764222084F83E002763FFF773F8A6853F
:102500008146E685A0684FF48058404501D1206996
:1025100040B12E465FF0000584F83C7027E00120B2
:10252000BDE8F88F0026F7E74B4600222021204621
:10253000CDF800A000F031FE08B10320F0E726B18D
:10254000A06840451BD038B108E020684068C0F35F
:10255000080025F8020B07E0206980B12068406878
:1025600000F07F0006F8010BE08D401EE085E08D55
:102570000028D9D1202084F83E000020D0E7206830
:102580004068EFE70220CBE790F83E30202B0ED1D9
:1025900059B152B190F83C30012B08D0012380F89A
:1025A0003C300023036300F0DDBD012070470220B2
:1025B000704770472DE9F843044690F83D001F46E8
:1025C00016460D4620284CD1C5B1BEB194F83C004A
:1025D000012846D0012084F83C004FF00008C4F8E0
:1025E0004080212084F83D00FEF7FCFFA684814650
:1025F000E684A068B0F5805F03D004E00120BDE868
:10260000F883206928B12E465FF0000584F83C80ED
:102610000EE00026FAE78021204600F0BEFDA0B9BA
:10262000AEB116F8010B21684860E08C401EE084D2
:10263000E08C4B464FF0000200970028EBD14FF0A2
:102640004001204600F0A9FD30B10320D7E735F85E
:10265000020BC0F30800E6E7202084F83D000020CC
:10266000CDE70220CBE77047FEE700007CB50546CA
:10267000EF208DF80000154C01208DF801006168F5
:10268000080E8DF80200080C8DF80300080A8DF87A
:10269000040007208DF805108DF8060000268DF83F
:1026A000076026700BE00120FEF780FE207830B135
:1026B000267069460648FDF73AFE002804D16D1ED3
:1026C0002D042D0CEFD100207CBD00009C000020CB
:1026D0004447002010B5184998B00022D1E9000104
:1026E000CDE91501012115A801F060FD134C124937
:1026F0001C22E06008316846FDF7F5FD00216846C0
:1027000001F02AFD0C4920601C22243107A8FDF7A6
:10271000EAFD002107A801F01FFD074960601C22A7
:1027200040310EA8FDF7DFFD00210EA801F014FDD9
:10273000A06018B010BD0000805A00080000002002
:102740002DE9F04186B014216846FDF7E5FD2B48E0
:102750004FF00008016841F080010160016801F05C
:1027600080010591016841F002010160016801F0FA
:1027700002010591016841F004010160016801F066
:1027800004010591016841F001010160016801F057
:1027900001010591016841F0080101600068184ECF
:1027A00000F008004FF48064059000222146304676
:1027B000FEF713FF134F012203213846FEF70DFFEA
:1027C000009401240225CDE9014569463046039570
:1027D000FEF7FEFDE002CDE90008694602943046AE
:1027E000FEF7F6FD0320CDE9000469463846CDE941
:1027F0000245FEF7EDFD06B0BDE8F081303802403D
:1028000000040240000C024010B586B000241748B6
:102810000094019402940394049413490594016074
:102820004721C0E9011444F61F61C0E90314802167
:102830008161FFF7B5FA08B1FEF718FD4FF480503B
:10284000009069460948FFF737FB08B1FEF70EFD17
:10285000049404A905480594FFF75AFA002801D00A
:10286000FEF704FD06B010BD00080040140800206B
:102870000C4810B50A4901604FF4614141600021E4
:1028800081600C22C160C0E904128161C161FFF75F
:1028900085FD002803D0BDE81040FEF7E7BC10BD61
:1028A000001001405C0800200C4810B50A49016086
:1028B0004FF4E1314160002181600C22C160C0E928
:1028C00004128161C161FFF769FD002803D0BDE8F2
:1028D0001040FEF7CBBC10BD00140140A008002042
:1028E00001B5FF23012269460348FFF763FE002874
:1028F00000D0012008BD00005C080020FEE7FEE7D4
:1029000070B50C46054600F05DF900F039F901207C
:10291000FFF7E6FF072000F065F90C20FFF7E0FF66
:102920002E0A3046FFF7DCFFE8B2FFF7D9FF200A96
:10293000FFF7D6FFE0B2FFF7D3FF56FA85F000EBC2
:102940001420E1B20844143000F032F94FF4FA6078
:10295000FFF78CFE08B1407A70BDFF2070BD10B546
:1029600000F030F900F00CF90120FFF7B9FF032067
:1029700000F038F90D20FFF7B3FF112000F018F92F
:102980004FF4FA60FFF772FE08B1407A10BDFF20E5
:1029900010BD10B5044600F015F900F0F1F8012063
:1029A000FFF79EFF042000F01DF90220FFF798FFBB
:1029B0002046FFF795FFE01D00F0FAF84FF4FA60AB
:1029C000FFF754FE08B1407A10BDFF2010BD10B5CE
:1029D00000F0F8F800F0D4F80120FFF781FF0320A1
:1029E00000F000F90120FFF77BFF052000F0E0F880
:1029F00040F6B830FFF73AFE08B1407A10BDFF202C
:102A000010BD2DE9F0411E4614460D46074600F064
:102A1000D9F800F0B5F80120FFF762FF082000F0B8
:102A2000E1F81B20FFF75CFF3846FFF759FF280A43
:102A3000FFF756FFE8B2FFF753FF200AFFF750FFFA
:102A4000E0B2FFF74DFF07EB1520E9B2084400EBB9
:102A50001420E1B20844243000F0AAF84FF4FA60E0
:102A6000FFF704FE58B1C27A837A417A02EB03225F
:102A70003280427B007B02EB0020708000E0FF216F
:102A80000846BDE8F08110B500F09CF800F078F839
:102A90000120FFF725FF032000F0A4F80320FFF733
:102AA0001FFF072000F084F84FF4FA60FFF7DEFD07
:102AB00008B1407A10BDFF2010BD10B500F082F8BB
:102AC00000F05EF80120FFF70BFF032000F08AF80A
:102AD0000520FFF705FF092000F06AF84FF4FA60BF
:102AE000FFF7C4FD08B1407A10BDFF2010BD70B5DE
:102AF0000C46054600F066F800F042F80120FFF7AA
:102B0000EFFE062000F06EF80620FFF7E9FE2846EB
:102B1000FFF7E6FE200AFFF7E3FEE0B2FFF7E0FE74
:102B200005EB1420E1B208440D3000F041F84FF4F9
:102B3000FA60FFF79BFD08B1407A70BDFF2070BDC1
:102B400070B50D4D4FF4006421462846FEF738FD60
:102B5000002810D13220FEF729FC21462846FEF736
:102B60002FFD0028F9D02846BDE8704000224FF420
:102B70008061FEF732BD70BD000402407047000066
:102B800010B50A4C6068000EFFF7AAFE6068C0F33B
:102B90000740FFF7A5FEA088C0F30720FFF7A0FEBF
:102BA0002079BDE81040FFF79BBE00009C0000208C
:102BB00010B50446000AFFF793FEE0B2BDE81040EE
:102BC000FFF78EBE10B54FF4C8710548FDF7A4FBA2
:102BD000EF20FFF785FEBDE810400120FFF780BE23
:102BE0004447002010B50446C0F30720FFF778FEE5
:102BF000E0B2BDE81040FFF773BE000010B5FEF76D
:102C000017FA0146BDE8104001A000F03BBB0000F0
:102C100025730D0A0000000010B50A4800F032FBD1
:102C200009A000F02FFB10A000F02CFB16A000F074
:102C300029FB1DA000F026FBBDE8104024A000F0F9
:102C400021BB0000585B0008202020D6B8C1EE2030
:102C500020202D2D2D2D2D2D202020202020B9A607
:102C6000C4DC200D0A00000020202020312020207C
:102C700020202D2D2D2D2D2D20202020CCEDBCD33E
:102C8000D6B8CEC6200D0A002020202032202020D9
:102C900020202D2D2D2D2D2D20202020B6D4B1C863
:102CA000D6B8CEC6200D0A002020202033202020B8
:102CB00020202D2D2D2D2D2D20202020C9BEB3FD0F
:102CC000D6B8B6A8D3C3BBA7D6B8CEC60D0A0000E7
:102CD000202020203420202020202D2D2D2D2D2D92
:102CE00020202020C7E5BFD5D6B8CEC6BFE20D0A4A
:102CF00000000000FEF7BCFAFCE70000054C4FF4B2
:102D0000FA7502212046FEF760FC284601F018FA09
:102D1000F7E70000000C0240FFF712FF142001F05B
:102D20000FFAF9E710B5502080F31188BFF34F8FE9
:102D3000BFF36F8F02F0C4FC18B104494FF080500C
:102D40000860002080F3118810BD000004ED00E051
:102D500030B593B030216846FDF7DEFA14210CA897
:102D6000FDF7DAFA1C480025016841F08051016046
:102D7000006800F0805011901848016841F48041CB
:102D800001600068022400F480401190012000904E
:102D9000000401908001CDE9064008AA04204821E2
:102DA00082E813000B906846FEF7FAFD08B172B690
:102DB000FEE70CA90F2081E831004FF48050CDE9E7
:102DC0000F0502210CA8FEF7E1FC002801D072B625
:102DD000FEE713B030BD00004038024000700040F4
:102DE0000248016841F470010160704788ED00E01D
:102DF0000148FFF7D0B80000140800200148FFF791
:102E0000CAB80000E4080020F0B50268254C264D41
:102E1000264E274F274B4FF0804CA04209D06045EB
:102E200007D0A84205D0B04203D0B84201D09842A2
:102E300004D122F0700E4A6842EA0E02A0421BD072
:102E4000604519D0A84217D0B04215D0B84213D06F
:102E5000984211D0184DA8420ED0184DA8420BD060
:102E6000174DA84208D0174DA84205D0164DA842CC
:102E700002D0164DA84203D122F44075CA682A43F5
:102E80004D6922F080022A4302608A68C2620A68A1
:102E90008262A04201D0984201D1096901630121F7
:102EA0004161F0BD00000140000400400008004006
:102EB000000C00400004014000400140004401407B
:102EC0000048014000180040001C00400020004065
:102ED00010B5846842EA032224F47F440A43224363
:102EE000826010BD826822F070020A4342F007013E
:102EF0008160704710B5036A046A24F0010404621B
:102F0000846924F0F00444EA021423F00A020A431C
:102F10008461026210BD10B5036A23F010030362DE
:102F20008369046A23F4704343EA023224F0A00365
:102F300043EA01118261016210BD10B5806B00216E
:102F4000C185C184FFF7F4F810BD01680C3151E868
:102F5000002F22F4907241E80023002BF5D1016884
:102F6000143151E8002F22F0010241E80023002B28
:102F7000F5D1016B012909D101680C3151E8002F0D
:102F800022F0100241E80023002BF5D1202180F827
:102F90003E1000210163704708B590F83E102229C9
:102FA00001D0022008BD82684FF480539A4201D1BB
:102FB000016921B1816A9A421BD04AB10AE00268D4
:102FC000816A5268C2F308020A80816A891C08E09B
:102FD000026972B10268526802F07F020A70816A67
:102FE000491C8162C18D491E0904090CC18503D0A9
:102FF00019E002685268F1E70168CA6822F020020D
:10300000CA600168CA6822F48072CA6001684A69AD
:1030100022F001024A61202180F83E10016B012953
:1030200003D0FFF7C6FA002008BD00210163016844
:103030000C3151E8002F22F0100241E80023002B50
:10304000F5D101680A68D20602D50A68496800917C
:10305000818DFFF76CF8E6E770B5044600680169FA
:10306000E26821F44051114301612169A068E269DD
:1030700008436169114308432168CA6849F20C6337
:103080009A430243CA6020684169A26921F44071F1
:103090001143416131492068884202D03049884259
:1030A00002D1FEF73DFC01E0FEF72AFCE2690023B5
:1030B000192164253226B2F5004F626828D0A0FBA2
:1030C0000101930F9200FDF7DDF80146B0FBF5F02A
:1030D0006FF01802504301EB800006EB0010B0FBCC
:1030E000F5F000F0F002B1FBF5F002EB0012B1FBDD
:1030F000F5F06FF01803584301EB800006EB001069
:10310000B0FBF5F000F00F0021681044886070BD3E
:10311000A0FB010192185B41FDF7B4F80146B0FB3A
:10312000F5F00201B1FBF5F06FF01803584301EB25
:10313000800006EBC000B0FBF5F000F0F80002EBF9
:103140004002B1FBF5F0584301EB800006EBC000F4
:10315000B0FBF5F000F00700D6E7000000100140DA
:103160000014014081628285C2850021016422220F
:1031700080F83E2080F83C100168CA6842F48072F2
:10318000CA6001684A6942F001024A610068C16888
:1031900041F02001C160002070472DE9F0419846C0
:1031A00017460E460446069D27E0681C25D02DB123
:1031B000FEF718FAA0EB0800A8421ED920680C30D0
:1031C00050E8001F21F4D07140E80012002AF5D128
:1031D0002068143050E8001F21F0010140E800127F
:1031E000002AF5D1202084F83D0084F83E0000201C
:1031F00084F83C000320BDE8F0812068006836EACE
:10320000000004D00020B842CFD00020F3E7012016
:10321000F9E700000B4982B008680268D243D20681
:103220000CD40268406800904FF4C870C885064806
:10323000886206490120087002B07047014802B058
:10324000FEF778BF5C080020444700209C00002067
:1032500010B50A4C2068C068800601D501F046FC14
:103260002068C068000601D501F046FC4720FEF743
:1032700041FABDE810400148FEF75CBFA0080020FD
:10328000FEE700000FB4054B10B503A9044A0298ED
:1032900000F0FEF810BC5DF814FB0000754000085B
:1032A000640100200FB4084B10B504A902AA0398CA
:1032B00000F0EEF8044602A9002000F06CFC204665
:1032C00010BC5DF814FB0000973B00080907090ECD
:1032D000002804DB00F1E02080F80014704700F0C3
:1032E0000F0000F1E02080F8141D704702E008C8CC
:1032F000121F08C1002AFAD170477047002001E070
:1033000001C1121F002AFBD1704700002DE9FF5FA9
:1033100082B00021DDE90430020DDDF840B0034346
:1033200018D044F61050A2F2FF32424315141198FF
:1033300001281FD0A5EB0B00401C5FEA000A4FF0EC
:1033400000064E4FDFF83891B046504615D5CAF109
:10335000000413E0119801244AA3012801D16FEA67
:103360000B010298119AC0E90031C0E9024206B08F
:10337000BDE8F09FCBF10000DFE704460021404AA2
:10338000491842EB0450CDE9001012E0E00707D0E5
:1033900032463B4640464946FDF787F98046894616
:1033A00032463B4610461946FDF77FF906460F4662
:1033B0006410002CEAD1DDE90401DDE90023BAF153
:1033C000000F06DAFDF771F942464B46FDF76DF93D
:1033D00005E0FDF7DCF942464B46FDF7D8F9044617
:1033E0000E460022284BFDF759FA03D84FF0FF3064
:1033F000014607E00022254B20463146FDF7AEF896
:10340000FDF734FA102409E0002C0ADB0A2200231D
:10341000FCF738FF039B30321A55641E50EA010254
:10342000F2D1641C039AC4F111031444119A012AC5
:1034300003D0012208430DD10AE0084304D0002044
:103440004FF0110B119072E7A3EB0B056D1E0DE011
:103450005B4504DD4FF0000205F1010504E003DAED
:103460004FF00002A5F10105002AECD00298119955
:10347000C0E90231C0E9004579E7000000001440CE
:103480000000F03F300000000000F0430000E03F8B
:103490002DE9FF4F95B09A46884606460025EEE195
:1034A000252877D100242746F94A0121039400E01A
:1034B000044316F8013F203B01FA03F01042F7D114
:1034C00030782A2811D06FF02F033078A0F1300225
:1034D000092A16D8039A44F0020402EB820203EB95
:1034E00042021044761C0390EFE758F8042B039235
:1034F000002A03DA504244F40054039044F00204DA
:10350000761C30782E2816D116F8010F44F00404EA
:103510002A280DD06FF02F023078A0F13003092B4C
:1035200009D807EB870302EB4303C718761CF3E7C0
:1035300058F8047B761C30786C280FD006DC4C28B9
:1035400017D068280DD06A2814D104E0742810D050
:103550007A280FD10DE044F400140AE044F48014FA
:1035600001E044F440147278824202D104F58014E0
:10357000761C761C307866280BD013DC582877D060
:1035800009DC002875D04528F6D04628F4D0472815
:103590001AD193E118E0632835D0642879D06528E2
:1035A00012D18BE1702873D008DC6728F1D069282C
:1035B0006FD06E280DD06F2806D1ACE073282CD0C8
:1035C000752874D0782853D05246179990476D1CAF
:1035D00054E1C4F30250022809D003280DD0D8F8D2
:1035E000001004280DD00D6008F1040846E1D8F859
:1035F0000010EA17C1E90052F6E7D8F800100D8074
:10360000F2E70D70F0E718F8041B8DF800100020A9
:103610008DF80100EB46012003E058F804BB4FF0A1
:10362000FF3061074FF0000102D40DE009F1010104
:103630008946B9420FDA8145F8DB1BF809100029E9
:10364000F4D108E009F1010189468142FADB1BF857
:1036500009100029F6D103985346A0EB090721462B
:103660003846179A00F080FA284400EB090507E075
:1036700044E008E10DE01BF8010B52461799904712
:10368000B9F10109F7D2534621463846179AF2E0BC
:1036900039E00A21C4F302524FF0000B0091022AD4
:1036A00006D058F8040BC117032A09D00AE023E01A
:1036B00008F1070020F00702F2E80201904605E059
:1036C00000B2C117042A01D140B2C117002906DA9D
:1036D0000A460021404261EB02012D2202E0220550
:1036E00004D52B228DF80420012203E0E20701D04B
:1036F0002022F7E7914657E00A2100E010214FF021
:10370000000B00910BE010214FF0000B44F004047B
:103710000827009103E008204FF0000B0090C4F34D
:103720000252022A05D058F8040B0021032A08D0BF
:1037300008E008F1070020F00702F2E802019046D5
:1037400003E080B2042A00D1C0B24FF00009220782
:103750002AD53278702A07D0DDF800C08CF0100C22
:103760005CEA0B0C05D00EE040228DF8042001220B
:1037700008E050EA010306D030238DF804308DF8BC
:10378000052002229146009B83F0080353EA0B03B5
:103790000AD150EA010201D1620705D530228DF825
:1037A00004204FF001097F1E3278582A04D039A234
:1037B0000C920CAA02920BE03BA2F9E75B46009A3E
:1037C000FCF760FD0C9B9B5C029A521E02921370E8
:1037D00050EA0102F2D1029804A9081A00F1200B64
:1037E000600702D524F4803400E001275F4502DD44
:1037F000A7EB0B0000E0002000EB0B01009003980A
:103800004944401A0390E00306D453462146179AD0
:10381000039800F0A9F90544002706E001A85246E4
:10382000C05D179990476D1C7F1C4F45F6DBE00388
:103830000CD553462146179A039800F095F9054494
:1038400004E030205246179990476D1C0099481E9D
:1038500000900029F5DC08E00298029952460078B1
:10386000491C0291179990476D1CBBF10001ABF107
:10387000010BF1DC5BE100F065F90544761C307862
:1038800000287FF40DAE19B02846BDE8F08F000087
:103890000928010030313233343536373839616226
:1038A00063646566000000003031323334353637EA
:1038B000383941424344454600000000600700D4C7
:1038C000062708F1070020F00700F0E802238046F1
:1038D00003F0004C5FEA0C0001D097A009E020053E
:1038E00001D596A005E0E00701D095A001E0AFF278
:1038F0004C001390307823F0004365280CD006DC90
:10390000452809D046281DD047287FD13BE06628AE
:1039100018D067287AD136E00021112F01DB112061
:1039200000E0781CCDE9000104A90CA8FFF7EEFC2B
:10393000DDE90D010C9A4FF0000B07F1010910921F
:1039400000914EE04FF000400097CDE9011004A92E
:103950000CA8FFF7DBFCDDE90D020C9B0F994FF083
:10396000000B91461093009211B9791C00EB0109EC
:10397000B7EB090003D4C0F1FF3B07F10109A9EB44
:103980000700019042E0012F00DA01270021112FEA
:1039900001DD112000E03846CDE9000104A90CA8A2
:1039A000FFF7B4FCDDE90D010C9A00914FF0000B1C
:1039B000B946109221070FD4009A4A4503DA91467E
:1039C00001E0A9F10109B9F1010F05DD109AA9F192
:1039D0000101515C3029F4D0B84202DA10F1040F31
:1039E00003DA0121CDE9011010E0002803DC834453
:1039F000A9EB000102E0411C494500DD8946A0EB2E
:103A00000B00401C01904FF000400290200705D4AD
:103A10000198484502DB4FF0FF30019000208DF8FF
:103A20004B0002980DF14B07B0F1004F25D002205A
:103A30000C902B200D90029800280CDA4042029046
:103A40002D200D9007E00A210298FCF739FD303156
:103A5000029007F8011D0C99481E0C900029F2DC19
:103A600002980028EFD1791E0D980870307800F088
:103A7000200040F0450007F8020D11A8C01BC01D32
:103A800002901398007800B1012000EB0901019821
:103A900001EBE071029801440398401A401E039024
:103AA000E00306D453462146179A039800F05CF8C9
:103AB00005441398007818B15246179990476D1C29
:103AC000E00323D553462146179A039800F04CF89B
:103AD00005441BE0BBF1000F07DB0098584504DDEF
:103AE0001098179910F80B0001E0179930205246F2
:103AF000904701980BF1010B401E05F10105019063
:103B000004D12E205246179990476D1CB9F100013F
:103B1000A9F10109DEDC05E017F8010B52461799FF
:103B200090476D1C0299481E02900029F4DC534610
:103B30002146179A03989EE62D0000002B000000F6
:103B4000200000002DE9F041044600251E461746DE
:103B5000880404D405E039462020B0476D1C641E5B
:103B6000F9D52846BDE8F0812DE9F041044600254D
:103B70001E469046C80301D5302700E02027880460
:103B800004D505E041463846B0476D1C641EF9D5A2
:103B90002846BDE8F0810A68531C0B60107070471E
:103BA00070B54FF4C87210491048FEF7EDFC0F488D
:103BB0000068C16841F01001C1600B4D01206872BE
:103BC000FFF700F8FEF7DCFF094E0024305DFEF73A
:103BD00087FE641C0A2CF9DBC820FDF7E7FB687A36
:103BE000002800D0012070BD444700205C08002060
:103BF000A400002070B50C460988002505292FD1A6
:103C0000417840F2CF760A0281781143C278491C8C
:103C10001302027989B21A43531EB34220D2002301
:103C20002380012300F8013B2688761C2680560756
:103C300003D003EBD203DEB201E0C2F3C70600F803
:103C4000016B23885B1C2380002300F0A2F918B1CC
:103C500000F039FF054604E020883044208000E071
:103C60000325284670BD70B50C4609880025052936
:103C70002FD1417840F2CF760A0281781143C27881
:103C8000491C1302027989B21A43531EB34220D24F
:103C900000232380022300F8013B23885B1C238040
:103CA000530704D0012303EBD203DEB201E0C2F3D9
:103CB000C70600F8016B23885B1C238000F06BF9BA
:103CC00018B100F000FF054604E020883044208051
:103CD00000E00325284670BD70B50C460988002613
:103CE000052925D1417805790A0281781143491CBB
:103CF0006A1E89B27C2A1BD800222280032200F887
:103D0000012B22880023521C22806A0000F8012B1C
:103D10002288521C22802A4600F040F918B100F097
:103D2000D2FE064605E0208800EB4500208000E03A
:103D30000326304670BD70B50C460988002605295B
:103D400027D1417805790A0281781143C278491C4C
:103D500045EA02256A1E89B27C2A1AD200222280F4
:103D6000042200F8012B2288521C22806A0000F8ED
:103D7000012B2288521C22802A4600F045F918B1F6
:103D800000F0A1FE064605E0208800EB45002080FB
:103D900000E00326304670BD2DE9F0410446088856
:103DA00000270D460A2842D3607826790102A078C0
:103DB000227A0843401C1FFA80F8E07846EA002681
:103DC0006079731E0102A0790843401C81B2E0793A
:103DD0007C2B42EA0022607A28D83AB3792A25D887
:103DE000B0EB420F22D1012304F10A0000F0D6F813
:103DF00098B900212980172121702988601C491C4D
:103E00002980710000F8011B29880023491C2980A2
:103E10003246414600F0C2F818B100F054FE0746A1
:103E200005E0288800EB4600288000E0032738469C
:103E3000BDE8F08170B5064C0D4606492288401C4D
:103E4000FCF751FA2088401C2880002070BD00003B
:103E5000AE000020D448002038B509880024052988
:103E60000BD141780A0281781143491C027989B249
:103E70001AB9C278FF2A03D012B10324204638BDF4
:103E800000228DF80120C078FF280CD08DF800208A
:103E900001231A46684600F07CF80028EED000F0B6
:103EA00012FE0446EAE701208DF80000F0E710B5A5
:103EB00009880024052902D00324204610BD41783A
:103EC00001230A028178C01C1143491C89B21A4699
:103ED00000F064F80028F0D000F0F5FD0446ECE7AF
:103EE0002DE9F0410D4609880024052926D941789D
:103EF00043790A0281781143491C8EB2C178027954
:103F000042EA0122510704D0012101EBD201C9B2DA
:103F100001E0C2F3C701571EB7F5F66F0ED2994202
:103F20000CD101233146801D00F033F818B100F0A8
:103F3000CAFD044603E00520288000E00324204653
:103F4000BDE8F08170B50D460988002406291DD30F
:103F500041780A0281781143C278491C1302027920
:103F600089B21A434379561E772E0FD85606360E5D
:103F70009E420BD10123801D00F010F818B100F013
:103F8000A2FD044603E00520288000E0032420462B
:103F900070BD0120704701207047000070B50025FA
:103FA00051B38C18652C27D8154C6488091B154C07
:103FB00073B1012B21D11CE034F81130521E1B0AC1
:103FC00000F8013B14F8113000F8013B92B2491C93
:103FD000002AF1D111E000BF10F8013B521E1B0274
:103FE00024F8113010F8016B92B2334324F81130E9
:103FF000491C002AF0D100E00125284670BD0000D0
:10400000B0000020F4480020F0B5114B1124002529
:104010001C8022245C8033249C804424DC8099B161
:104020008C180B2C10D800240BE0661803EB460606
:1040300036F8027D3F0A00F8017B367800F8016B04
:10404000641C9442F1DB00E001252846F0BD00002D
:10405000BC49002008B500208DF800004FF6FF7322
:10406000012269460248FEF72FFA9DF8000008BDBC
:10407000A008002038B504468DF800000223012274
:1040800069460248FEF796FA204638BDA00800208F
:10409000FDF7B6FAFEF75CFEFEF752FBFEF7B4FB47
:1040A000FEF7E6FBFEF700FC012291020C48FDF74B
:1040B00094FA4FF4FA70FDF779F90AA0FFF7E2F8E5
:1040C000FFF76EFD48B10DA0FFF7DCF8FEF7A4FD89
:1040D000FEF700FB00F03BF8FEE70FA0F4E700005E
:1040E000000402404153363038D6B8CEC6C4A3BF10
:1040F000E9B2E2CAD4BFAACABC0D0A0041533630A5
:1041000038D6B8CEC6C4A3BFE9B3F5CABCBBAFCAE4
:10411000A7B0DC0D0A0000004153363038D6B8CEC7
:10412000C6C4A3BFE9B3F5CABCBBAFB3C9B9A60D3A
:104130000A00000001460020842900D0C81C7047F6
:1041400010B500B9012000F095FE002010BD10B59B
:1041500000F0F8FE002010BD7FB50D460446416911
:10416000B0F9080081B1A16971B1FFF7E3FFD4E9AB
:1041700005128DE80700D4E900102B46226901F0F2
:1041800060FA039004B070BDFFF7D4FF03A9CDE936
:104190000001208A2B4682B2D4E9001001F024FAF3
:1041A000012801D00020EDE70398EBE71CB511C80A
:1041B0006CB1CDE90004012907D000201346024666
:1041C000012109A001F0E4FB1CBD0120F6E70090ED
:1041D000012907D0002013460246012102A001F068
:1041E000BDFB1CBD0120F6E70000000070B586B0E5
:1041F000002420A0FFF746F840F2DC554FF4FA7691
:10420000641CE4B220A0FFF73DF8FEF7E0FB98B98C
:104210000120FEF7BEFB60B905AB6322002101203F
:10422000FEF7EFFB90B11DA0FFF72CF82846FDF735
:10423000BDF81DA0FFF726F83046FDF7B7F8142C9F
:10424000DED11CA0FFF71EF806B070BD23A0FFF75B
:1042500019F8BDF81630BDF8142024A16846FFF700
:1042600021F8694625A0FFF70DF82846FDF79EF8CE
:10427000DCE70000C7EBBDF8D0D0D6B8CEC6B6D4C8
:10428000B1C80D0A00000000C7EBBDF8D0D0D6B809
:10429000CEC6B6D4B1C82121210D0A00D1E9D6A4D9
:1042A000CAA7B0DC0D0A0000C7EBB0B4CAD6D6B8B6
:1042B0000D0A0000B3A4CAB1BCE4C3BBD3D0B6D4CA
:1042C000B1C8D6B8CEC6A3ACCDCBB3F6D6B8CEC6A1
:1042D000B6D4B1C8CFB5CDB30D0A0000D6B8CEC69E
:1042E000D1E9D6A4B3C9B9A6000000002049443AD8
:1042F000256420B5C3B7D63A2564200025730D0A7E
:10430000000000002DE9F041184C0F460546E66814
:104310002068001D00F07AFC38B9206890F82C1055
:1043200001208840216981432161681C07D137B190
:104330002168BDE8F0410E48091D00F0B7BC2068B7
:104340003544B5424560216805D2A06BBDE8F04117
:10435000091D00F093BC606B091D00F08FFCA06A82
:10436000854200D2A562BDE8F08100002000002057
:10437000480A00202DE9F041054600F0A3FC2E4C30
:10438000A068401CA06020682C4F10B1606940B349
:104390002DE02560A068012829D1002606EB8600C3
:1043A00007EB800000F05CFC761C072EF6D3234858
:1043B0008C3000F055FC2148A03000F051FC1F4823
:1043C000B43000F04DFC1D48C83000F049FC1B48DB
:1043D000DC3000F045FC19488C3060631430A06379
:1043E00005E02068E96AC06A884200D82560606AF2
:1043F000401C6062E96A0120226988401043206104
:1044000001EB810007EB8000291D00F04FFC00F05C
:1044100079FC606900280CD02068E96AC06A88428B
:1044200007D207494FF080500860BFF34F8FBFF3AA
:104430006F8FBDE8F0810000200000206C09002093
:1044400004ED00E038B500F03DFC104C2068C8B920
:104450000F4800F005FC0E48143000F001FC0C4839
:10446000E060143020610A4B0020C03B009003F153
:1044700048020C210A2000F059FE206010B105A16D
:1044800000F0C2FCBDE8384000F03CBC5C000020FD
:104490001C0B0020546D72510000000030B4026CFF
:1044A0000B46002A0BD0C1681144C1608468A14248
:1044B00001D30168C16030BC1846FBF714BF30BCA3
:1044C00070472DE9F041856B174604460026026CC3
:1044D00082B1C7B1E068FBF706FFE168206C091AFA
:1044E000E1602268914202D2A168081AE060022FBE
:1044F00016D017E02068A8B9A06801F047F9064671
:104500000020A0600EE06068FBF7EDFE216C6068A3
:1045100008446060A168884204D32068606001E0BC
:1045200005B16D1E6D1CA5633046BDE8F08110B568
:10453000044690F8510058B101280CD002280FD041
:10454000502080F31188BFF34F8FBFF36F8FFEE7CA
:10455000206B00F0EBFB2046BDE8104000F0E6BB0E
:1045600010BD000010484FF47051420706D0C01D26
:104570000D4920F00700411AC1F570510B4A002384
:104580000144C2E900030839183A21F0070111601B
:104590004B600B600B1AC0E9001393604FF00040B2
:1045A0005360506170470000440B002088000020D9
:1045B000144E154CA6F1C8074FF08058DFF84C9008
:1045C00012E000BF00F07EFBF068C568281D00F017
:1045D0001DFBA068401EA0606068401E606000F087
:1045E00091FB2846FFF7A3FF60680028EAD13868EE
:1045F0000128F9D9C9F80080BFF34F8FBFF36F8F3F
:10460000F2E70000340A00202000002004ED00E062
:104610000346009829B10260C0E90F31012100F082
:10462000B9BD0060F8E72DE9F0479A46DDE9098455
:1046300081466FF00303206B03EB82021044089E57
:1046400020F00707780707D0502080F31188BFF3C8
:104650004F8FBFF36F8FFEE7002561B10020231855
:104660000A5C83F834200A5C12B1401C1028F6D38F
:1046700084F8435001E084F83450072E00D3062616
:10468000E662C4E91165201D00F0F5FA04F1180096
:1046900000F0F1FA2461C6F107006462A061E564EC
:1046A00084F8505052464946384600F099FA206046
:1046B000B8F1000F01D0C8F80040BDE8F0872DE93F
:1046C000F0471E46DDE9089417460D00804615D0D8
:1046D000002C11D0FFF7B6FE04F11801C4F80080D9
:1046E00081E86002201D00F0C6FA002F04D014F803
:1046F000240F40F004002070BDE8F087502080F3C4
:104700001188BFF34F8FBFF36F8FFEE730B51149AC
:1047100000E011460A688242FBD34B685C18844271
:1047200003D1406818444860084643681C18944206
:1047300009D1084C183C2468A24209D052681A4496
:1047400042600A6812680260814200D0086030BD91
:104750000460F9E78800002070B5002441600B4D2B
:104760000061914206D8D11A8269914206D2011D98
:10477000286907E09A4203D2994201D3012403E059
:10478000011DE86800F07AFA204670BD5C00002048
:1047900010B5044600F096FAA06B28B15FF0000453
:1047A00000F0B0FA204610BD0124F9E730B587B01B
:1047B000394D67E00498002864DB069C606910B1FD
:1047C000201D00F023FA03A800F0D8F80246049850
:1047D0000A2857D2DFE800F00505052D334A050504
:1047E0002D3394F8240040F0010084F8240005994A
:1047F000A069059B01442046FFF7AEFF68B3216A1C
:104800002046884794F8240040073BD500200090BC
:104810000598A169002342181946204601F000F9C5
:10482000D8B9502080F31188BFF34F8FBFF36F8F3B
:10483000FEE714F8240F20F00100207022E094F825
:10484000240040F0010084F824000598A06128B1FC
:10485000811813462046FFF77FFF13E0502080F3B6
:104860001188BFF34F8FBFF36F8FFEE794F82400DA
:10487000810703D4204600F059FA03E020F001003C
:1048800084F82400002204A9286800F0D7FD00283D
:1048900090D107B030BD00005C0000202DE9FC4144
:1048A0000F46054600F092FB01A800F067F80446A9
:1048B000019818B100F0F0FFBDE8FC81254EAFB1C2
:1048C00030690068D0B30027291B3A46306800F0F1
:1048D000AFFA00F0E1FF0028EED11F494FF0805001
:1048E0000860BFF34F8FBFF36F8FE5E7A542EBD8AA
:1048F00000F0D2FFF0682746C068C468201D00F0B1
:1049000085F994F82400410719D5A0692B4641196F
:104910003A462046FFF720FFA8B100200346014693
:1049200000902A46204601F07BF860B9502080F3C1
:104930001188BFF34F8FBFF36F8FFEE707E020F0C2
:10494000010084F82400216A20468847B4E7012743
:10495000BAE700005C00002004ED00E00648416B6F
:10496000096829B1416BC968C968496881627047A3
:104970004FF0FF31FAE700002000002070B5054637
:1049800000F098FE064E0446B068844203D200F060
:1049900009F8012000E0002028602046B46070BDC6
:1049A0005C000020F8B5194D20E0C068C4680668B6
:1049B000201D00F02BF9216A2046884794F8240036
:1049C000400713D5A0693044B04206D92461606025
:1049D000211DE86800F052F908E000200346014676
:1049E00000903246204601F01BF838B1E8680168B3
:1049F0000029DAD12969C5E90310F8BD502080F3F8
:104A00001188BFF34F8FBFF36F8FFEE75C0000206C
:104A100008484068401C4FF0500080F3118804D0D3
:104A2000BFF34F8FBFF36F8FFEE7BFF34F8FBFF31F
:104A30006F8FFEE790000020074CE068016841B1ED
:104A4000C0680021D0F80000FFF728FFFFF7AEFE96
:104A5000F3E701210020F7E75C0000202DE9F04199
:104A6000044600F02FF994F9455004F1240609E0BA
:104A7000606A48B1304600F0D5FE08B100F028FA6F
:104A80006D1E6DB2002DF3DC4FF0FF3684F84560EB
:104A900000F038F900F016F994F9445004F11007C9
:104AA00009E0206948B1384600F0BCFE08B100F0CA
:104AB0000FFA6D1E6DB2002DF3DC84F84460BDE882
:104AC000F04100F01FB9002804D0012803D00728C6
:104AD00003D0042070470220704706207047000072
:104AE0000148006800470000DC0000200148006821
:104AF00000470000D4000020014800680047000083
:104B0000D80000202DE9F0410546002700F05EFAAC
:104B1000324E306808B9FFF725FD706905424ED165
:104B2000C5B3083568070ED005F00700C0F10800CE
:104B30000544680707D0502080F31188BFF34F8FDA
:104B4000BFF36F8FFEE72DB37068854237D82348D7
:104B5000183001460C6801E020460C466168A94205
:104B600002D221680029F7D131688C4227D007682A
:104B70002168016060680837411B10290FD960194E
:104B8000420708D0502080F31188BFF34F8FBFF346
:104B90006F8FFEE713E041606560FFF7B7FD616866
:104BA0007068401A7060B268904200D2B06070695C
:104BB00001430020C4E90001F068401CF06000F0EF
:104BC0006BFE780707D0502080F31188BFF34F8F1A
:104BD000BFF36F8FFEE73846BDE8F081700000201C
:104BE00010B5031F4FF080741C601B1F21F00101E2
:104BF0001960191F044B0B6014390A60091F6FF00C
:104C0000020244380A6010BD114A0008D0E901329E
:104C100001699A60D0E901235A604A68824201D151
:104C200082684A60002202610868401E08600868C5
:104C300070470000034B036003F1540008608020BC
:104C4000106070476C010020044B036003F15400B6
:104C500008604FF48070106070470000C0030020AF
:104C600000F108014FF0FF32C0E90112C16001619B
:104C700000210160704700210161704730B50B6869
:104C80005A1C02D000F1080202E0026904E0224648
:104C9000546825689D42FAD953684B6099608A60D0
:104CA000516008610168491C016030BD42684A607A
:104CB00093688B6093685960916008610168491C32
:104CC00001607047502080F31188BFF34F8FBFF30E
:104CD0006F8F0A494868401C486001280CD1084879
:104CE000006810F0FF0F07D0502080F31188BFF349
:104CF0004F8FBFF36F8FFEE77047000090000020DA
:104D000004ED00E00849486828B1401E486001D120
:104D100080F311887047502080F31188BFF34F8FC4
:104D2000BFF36F8FFEE700009000002070B50028F1
:104D30002AD0164DA0F1080460686969084207D1BD
:104D4000502080F31188BFF34F8FBFF36F8FFEE7C2
:104D500022683AB1502080F31188BFF34F8FBFF320
:104D60006F8FFEE78843606000F030F96068696823
:104D7000084468602046FFF7C9FC2869401C286188
:104D8000BDE8704000F088BD70BD000070000020DC
:104D90004FF0E02000210161816105494FF47A72F2
:104DA0000968B1FBF2F1491E4161072101617047B9
:104DB0001C00002010B5FBF74FFA114910280ED344
:104DC00000F1E02090F8F0030A78904207D25020DA
:104DD00080F31188BFF34F8FBFF36F8FFEE7094851
:104DE0000068896800F4E060884207D9502080F3A9
:104DF0001188BFF34F8FBFF36F8FFEE710BD000028
:104E0000900000200CED00E010B5084B002200BF20
:104E100053F832401CB1521C082AF9D310BD43F894
:104E2000321003EBC201486010BD00002C090020C5
:104E300070B515460E460446FFF744FF94F944103A
:104E40000020491C01D184F8440094F94510491C04
:104E500001D184F84500FFF755FFA06B28B92A4619
:104E6000314604F1240000F051F82046BDE87040BE
:104E7000FFF7F4BD10B5020014D00F48006B38B135
:104E8000502080F31188BFF34F8FBFF36F8FFEE781
:104E900000F09CF800211046FFF734FA00F0FCFC0B
:104EA000002807D105494FF080500860BFF34F8FAD
:104EB000BFF36F8F10BD00002000002004ED00E064
:104EC00002490A6A0260C9684160704720000020F8
:104ED00001490120C86170472000002010B50C4630
:104EE00050B1094909681831FFF7C8FE2046BDE8EE
:104EF00010400121FFF706BA502080F31188BFF35C
:104F00004F8FBFF36F8FFEE72000002070B514466F
:104F10000D4668B10A4909681831FFF7C7FE0CB1A0
:104F20004FF0FF3521462846BDE87040FFF7EAB94B
:104F3000502080F31188BFF34F8FBFF36F8FFEE7D0
:104F40002000002030B587B00024039405AA04A9EE
:104F500003A80494FFF76EFEDDE903010094CDE998
:104F60000110002315A11748059A00F06AFB164DA1
:104F70000028E8621FD000F023FD012809D0401C62
:104F800019D1502080F31188BFF34F8FBFF36F8F7B
:104F9000FEE7502080F31188BFF34F8FBFF36F8F70
:104FA0004FF0FF30A86201206861EC6007B0BDE8F7
:104FB000304000F041B807B030BD000049444C45D6
:104FC00000000000B1450008200000200248016BED
:104FD000491C016370470000200000201448016B49
:104FE00011B10121C16170470021C1610169B1FAAC
:104FF00081F1C1F11F0101EB81020E4951F822300C
:105000006BB101EB820101F108034A6852684A6002
:105010009A4201D152684A60D168016070475020BD
:1050200080F31188BFF34F8FBFF36F8FFEE700004F
:10503000200000206C0900201CB537480168374A61
:10504000914207D1502080F31188BFF34F8FBFF3F7
:105050006F8FFEE700683149491E884207D1502012
:1050600080F31188BFF34F8FBFF36F8FFEE72C499A
:1050700008780190FF20087008788DF800009DF8EE
:1050800000009DF8002000F0F000904207D0502072
:1050900080F31188BFF34F8FBFF36F8FFEE79DF84A
:1050A0000000204C00F0500020700720A06005E0B8
:1050B0009DF8002052008DF80020401E9DF8002031
:1050C0001206F5D4A060032807D0502080F3118881
:1050D000BFF34F8FBFF36F8FFEE74FF44070A060B8
:1050E000019808700C482030016841F4700101609B
:1050F000016841F070410160FFF74AFE00206060E6
:10510000FBF772F80848016841F040410160FBF785
:1051100057F800201CBD000000ED00E071C20F41F7
:1051200000E400E09000002034EF00E038B5049D7A
:1051300018B153B1CAB181B120E0502080F3118879
:10514000BFF34F8FBFF36F8FFEE7502080F31188BE
:10515000BFF34F8FBFF36F8FFEE7502080F31188AE
:10516000BFF34F8FBFF36F8FFEE739B1502080F34D
:105170001188BFF34F8FBFF36F8FFEE748241C46A3
:10518000012384F846302B460094FFF741FA20466D
:1051900038BD000070B50D46040025D0FFF792FD24
:1051A000D4E90F20216802FB0011A1600021A16356
:1051B000216861600A46D4E90F01401E00FB01210D
:1051C000E16021464FF0FF3001F8440F487004F1D0
:1051D00010008DB1FFF744FD04F12400FFF740FDFE
:1051E000FFF790FD012070BD502080F31188BFF3C0
:1051F0004F8FBFF36F8FFEE721690029F0D000F0D9
:1052000011FB0028ECD004494FF080500860BFF338
:105210004F8FBFF36F8FE3E704ED00E02DE9FF4709
:1052200082B01D468A464FF00008040003D0BAF150
:10523000000F08D011E0502080F31188BFF34F8F8A
:10524000BFF36F8FFEE7206C38B1502080F31188D8
:10525000BFF34F8FBFF36F8FFEE7022D0AD1E06BD4
:10526000012807D0502080F31188BFF34F8FBFF380
:105270006F8FFEE700F010FA3F4F4FF000094FF03C
:10528000805648B9049838B1502080F31188BFF394
:105290004F8FBFF36F8FFEE7FFF714FDA06BE16B3D
:1052A000884207D3022D05D00498D0B1B8F1000F81
:1052B0001AD01EE02A4651462046FFF702F9616ADD
:1052C00019B104F1240000F0ADFA20B13E60BFF343
:1052D0004F8FBFF36F8FFFF715FD012006B0BDE8BC
:1052E000F087FFF70FFD22E06846FFF7E9FD4FF07A
:1052F0000108FFF707FDFFF769FEFFF7E3FC94F9EC
:105300004400401C01D184F8449094F94500401CAD
:1053100001D184F84590FFF7F5FC04A9684600F038
:1053200029F930B12046FFF799FB00F0B5FA0020CB
:10533000D4E7FFF7C7FCA06BE16B884213D1FFF7FE
:10534000E1FC04F110000499FFF7C8FD2046FFF7C7
:1053500085FB00F0A1FA00289ED13E60BFF34F8F7D
:10536000BFF36F8F98E7FFF7CDFC2046FFF776FB82
:1053700000F092FA90E7000004ED00E02DE9F0471C
:105380001F4690468946040003D0B9F1000F08D0AB
:1053900011E0502080F31188BFF34F8FBFF36F8F60
:1053A000FEE7206C38B1502080F31188BFF34F8F97
:1053B000BFF36F8FFEE7022F0AD1E06B012807D001
:1053C000502080F31188BFF34F8FBFF36F8FFEE73C
:1053D000FFF7F0FC5020EFF3118680F31188BFF344
:1053E0004F8FBFF36F8FA06BE16B884206D3022F04
:1053F00004D0002086F31188BDE8F08794F9455069
:10540000A06B3A4649462046FFF75BF8681C04D07B
:105410006D1C84F845500120ECE7606A0028FAD042
:1054200004F1240000F0FEF90028F4D0B8F1000FD8
:10543000F1D00121C8F80010EDE700002DE9F74791
:10544000002683B08A46040003D0BAF1000F08D0CA
:1054500011E0502080F31188BFF34F8FBFF36F8F9F
:10546000FEE7206C38B1502080F31188BFF34F8FD6
:10547000BFF36F8FFEE700F00FF9DFF8F4804FF015
:1054800000094FF0805748B9059838B1502080F393
:105490001188BFF34F8FBFF36F8FFEE7FFF712FC4A
:1054A000A56BC5B151462046FEF7F8FF6D1EA563FA
:1054B000206950B104F1100000F0B4F928B1C8F827
:1054C0000070BFF34F8FBFF36F8FFFF71BFC0120FE
:1054D00006B0BDE8F087059808B11EB106E0FFF7F9
:1054E00011FC27E06846FFF7EBFC0126FFF70AFCFA
:1054F000FFF76CFDFFF7E6FB94F94400401C01D177
:1055000084F8449094F94500401C01D184F84590FA
:10551000FFF7F8FB05A9684600F02CF800282046A4
:105520000AD0FFF79BFA00F0B7F92046FFF730F9F1
:105530000028B3D00020CBE7FFF72AF990B104F19F
:1055400024000599FFF7CAFC2046FFF787FA00F010
:10555000A3F90028A2D1C8F80070BFF34F8FBFF3A2
:105560006F8F9BE72046FFF779FA00F095F995E7F2
:1055700004ED00E02DE9F0410C46050011D0C4B166
:10558000FFF7A0FB174BDA686E682068911B471C79
:1055900017D02F681B6A9F4219D0964217D8012452
:1055A00010E0502080F31188BFF34F8FBFF36F8F4F
:1055B000FEE7502080F31188BFF34F8FBFF36F8F4A
:1055C000FEE70024FFF79EFB2046BDE8F0818842FD
:1055D00005D9401A20602846FFF772FCF1E7002049
:1055E0002060DCE7200000202DE9FF5F8346DDE935
:1055F0000E87994616468A469000FFF783FA050003
:105600001CD05420FFF77EFA040014D0002025633C
:1056100084F85100CDE90240CDE900874B4632467F
:1056200051465846FEF7FFFF2046FEF7A3FE012035
:1056300004B0BDE8F09F2846FFF778FB4FF0FF303D
:10564000F6E7F0B585B0DDE90B640A9DA6B1DCB1E3
:10565000542700972663022684F85160002604AF81
:10566000CDE90246CDE90057FEF7DDFF2046FEF703
:1056700081FE049805B0F0BD502080F31188BFF37F
:105680004F8FBFF36F8FFEE7502080F31188BFF379
:105690004F8FBFF36F8FFEE70548416919B1006B6B
:1056A00018B10020704701207047022070470000A9
:1056B000200000200148C068704700002000002042
:1056C0002DE9F0412F4C0026206B28B1A069401C29
:1056D000A0613046BDE8F081E5686D1CE56013D13E
:1056E000606B006838B1502080F31188BFF34F8F92
:1056F000BFF36F8FFEE7606BA16B6163A063206AED
:10570000401C2062FFF72AF9A06ADFF87C808542FE
:1057100009D3606B0068A0B1606BC068C768786827
:10572000854211D2A0622068C06A00EB800158F85F
:105730002100012800D90126E0690028C9D00126EE
:10574000C7E74FF0FF30EDE7381DFFF75FFAB86AA3
:1057500018B107F11800FFF759FAF96A0120226918
:1057600088401043206101EB810108EB8100391D65
:10577000FFF79CFAF86A2168C96A8842C9D30126F2
:10578000C7E70000200000206C09002070B504006D
:105790004FF0000140D0214D2868844207D05020AE
:1057A00080F31188BFF34F8FBFF36F8FFEE7A06CBC
:1057B00038B1401EA064636CE26A9A422CD040B1BA
:1057C0002AE0502080F31188BFF34F8FBFF36F8F13
:1057D000FEE7201DFFF71AFA114A012150B9E06ACD
:1057E00000EB800352F8233023B92B6901FA00F053
:1057F00083432B61606CE062C0F10700A061E06A46
:105800002B6981401943296100EB800002EB800085
:10581000211DFFF74BFA0121084670BD2000002032
:105820006C0900202DE9F041C068C468ACB104F1F6
:1058300018000746FFF7EAF9154D286B0126A0B1BD
:1058400039461448FFF732FAE06A2968C96A884283
:105850001CD90120EE61BDE8F081502080F3118851
:10586000BFF34F8FBFF36F8FFEE7201DFFF7CEF919
:10587000E16A2A6906FA01F01043286101EB810010
:105880000449B43901EB8000211DDBE70020E2E789
:1058900020000020200A00202DE9F0472C4D002494
:1058A0002746286B38B1FFF70DFA286B401E286396
:1058B000286B40B146E0502080F31188BFF34F8F32
:1058C000BFF36F8FFEE7A968224E0120D1B3A6F186
:1058D000B40980463068E8B1F068C46804F1180083
:1058E000FFF794F9201DFFF791F9E06A2A6908FA99
:1058F00000F11143296100EB800109EB8100211DBA
:10590000FFF7D4F9E06A2968C96A8842E2D3C5F88A
:105910001C80DFE70CB1FFF721F8AC6944B14646C3
:10592000FFF7CEFE00B1EE61641EF9D10020A86140
:10593000E86938B10849012738070860BFF34F8F7D
:10594000BFF36F8FFFF7DEF93846BDE8F087000040
:1059500020000020200A002004ED00E02DE9FC4793
:1059600081461E461746884628200A9DFFF7CAF83A
:1059700004000AD0002084F82400CDE90054334606
:105980003A4641464846FEF79AFE2046BDE8FC8767
:105990007CB52826DDE90654009644B1022684F839
:1059A0002460CDE90054FEF78AFE20467CBD5020DD
:1059B00080F31188BFF34F8FBFF36F8FFEE70000B6
:1059C00010B586B0FEF73EFD114C2068B8B100203E
:1059D0000390049005AA04A903A8FFF735F9DDE9AF
:1059E000032102208DE8070000230AA10B48059A35
:1059F000FFF727FE606010B106B0012010BD5020F7
:105A000080F31188BFF34F8FBFF36F8FFEE7000065
:105A10005C000020546D722053766300394A000800
:105A2000FEB51E4613460200089D4FF0000014D03C
:105A3000124C2768002F0FD0CDE9001302920629DF
:105A400015DAFFF729FE02284FF000030DD00022DF
:105A500069462068FFF7E2FBFEBD502080F3118805
:105A6000BFF34F8FBFF36F8FFEE72A46F0E70023A7
:105A7000324669463846FFF781FCFEBD5C000020D7
:105A80007F0F000800000000345B0008192D00089B
:105A9000FEFF000000000000800000000000000089
:105AA000000000004C5B0008FD2C0008FDFF00001A
:105AB0000000000080000000000000000000000066
:105AC000405B0008F52C0008FDFF0000000000000E
:105AD0008000000000000000000000000000000046
